:1000000000000320D101000099AD000051AD0000B7
:1000100051AD000051AD000051AD000051AD0000E8
:1000200051AD000051AD000051AD000099AD000090
:1000300099AD000051AD000061D0000065D0000016
:1000400099AD000099AD000099AD000099AD000098
:1000500099AD000099AD000099AD000099AD000088
:1000600099AD000099AD000099AD000099AD000078
:1000700099AD000099AD000099AD000099AD000068
:1000800099AD000099AD000099AD000099AD000058
:1000900099AD000099AD000099AD000099AD000048
:1000A00099AD000099AD000099AD000099AD000038
:1000B00099AD000099AD000099AD000099AD000028
:1000C00099AD0000E1BD000099AD0000ADDD00007C
:1000D00099AD000099AD000099AD000099AD000008
:1000E00099AD000099AD000099AD000099AD0000F8
:1000F00099AD000099AD000099AD000099AD0000E8
:1001000099AD000099AD000099AD000099AD0000D7
:1001100099AD0000A1C0000099AD000099AD0000AC
:1001200099AD000099AD000099AD000099AD0000B7
:1001300099AD000099AD000099AD000099AD0000A7
:1001400099AD000099AD000099AD000099AD000097
:1001500099AD000099AD000099AD000099AD000087
:1001600099AD000099AD000099AD00001187000025
:1001700099AD000099AD000099AD000099AD000067
:1001800099AD000099AD000099AD000099AD000057
:1001900099AD000099AD000099AD000099AD000047
:1001A00099AD000099AD000099AD000099AD000037
:1001B00099AD000099AD00001D87000099AD0000C9
:1001C00099AD000099AD000099AD000099AD000017
:1001D0005C4B4CF2205210B51A804DF628121A8052
:1001E00000BF00BF0AF0DCFD574B4FF030621A60D1
:1001F000564A9A60564ADA60564B4FF470021A60BB
:10020000554B564A1A60564B1A78110703D51A787F
:1002100042F008021A70534B5349AA221A70534AEB
:10022000534B8B4204D252F8040F43F8040BF8E707
:10023000504B514900228B4202D243F8042BFAE77B
:100240004E494F4A002352F8230041F8230001335E
:10025000742BF8D14B4B4C4A802103F8011B93427D
:10026000FBD14A4B454A1A60494B8A221A70A3F5C2
:10027000805324225A70A0221A709A799207FCD5D2
:100280009A79D406FCD4434A937903F00C03082BE3
:10029000FAD1414B60221A7002331A78802AFCD1BD
:1002A0003C4B01221A715D225A719A799006FCD555
:1002B0009979384A4906FBD5384B394919600021EC
:1002C000596020231370937903F00C030C2BFAD19F
:1002D000344B354A1A60354A354C136813F4807331
:1002E00003D123604FF4A8531360324B324A1A6093
:1002F00000225A60072243F8042C304AC3F80C2D20
:1003000062B60BF085F92368DA0705D52C480AF0A8
:1003100097FE2C4B2C4A1A602C4B1B785B0609D598
:10032000284C294B22689A4204D125480AF088FEBD
:10033000002323600EF0B2FE0AF038FD0DF096F9AE
:10034000FEE700BF0E20054030800440823F0400DD
:100350000100002B88ED00E0002008E0030000858C
:1003600002D0074000E007403015FF1F104F01008A
:100370003007FF1F3015FF1F7861FF1F0002FF1FAE
:100380000000000000E400E064E400E008ED00E0AC
:10039000005006400040064001E007404480044011
:1003A0000000060204800440C010070010D0034083
:1003B00014D0034014E000E01FBF02000000202022
:1003C0009850FF601CE00340A5C3945A00F007401A
:1003D000FFFFFFFFFFFFFFFFFFFFFFFFFFFFFFFF2D
:1003E000FFFFFFFFFFFFFFFFFFFFFFFFFFFFFFFF1D
:1003F000FFFFFFFFFFFFFFFFFFFFFFFFFFFFFFFF0D
:10040000FFFFFFFFFFFFFFFFFFFFFFFFDEF9FFFF23
:1004100010B5054C237833B9044B13B10448AFF33E
:1004200000800123237010BD3015FF1F0000000065
:100430000C4F0100084B10B51BB108490848AFF339
:1004400000800848036803B910BD074B002BFBD0A0
:10045000BDE81040184700BF000000003415FF1F22
:100460000C4F01003015FF1F00000000014B186801
:1004700008F020BF4C15FF1F014B186808F01ABF89
:100480005015FF1FF0B589B000230D46019300936E
:1004900002930393D2B1012A3FD0022A40D0032A0B
:1004A0002ED01C461F469E469DF81630CDF810E013
:1004B00064F300038DF816308DF8177008AB13E95C
:1004C0000F0085E80F00304609B0F0BD15486946B9
:1004D00007F0B6FFDDF800E09DF807709DF80440D6
:1004E0000646002FE0D0F81D68440DF107030DF11A
:1004F000170213F8011F02F8011F8342F9D1D3E755
:10050000094B1868694608F0A9FADDF800E09DF883
:1005100007709DF804400646E3E769460348D7E7BD
:10052000034BEEE7905EFF1F5015FF1FC85EFF1FD5
:100530004C15FF1F08B519B9164B1878B8B908BD86
:1005400001290AD0022918D1124B98780028F6D038
:10055000114B186808F07AFA08BD0E4B587800283D
:10056000EDD00E4B9869003018BF012008BD0C4B30
:100570009869003018BF012008BD032908D1054B38
:10058000D8780028DBD0074B186808F05FFA08BD60
:100590000020D4E75415FF1F4C15FF1FC85EFF1F36
:1005A000905EFF1F5015FF1FF0B58BB02AB9374D75
:1005B0002C78002C38D00BB0F0BD012A144612D193
:1005C000324E7578002DF6D14FF47A7203A808F0F8
:1005D000DFF803A9019500952B462A462C4807F021
:1005E00001FD7470E7E7022A0D462ED1274CA3784F
:1005F000002BE0D158200DF041F8264E264A1D234D
:100600001A21074608F0F0F94FF47A732A46234975
:10061000376003A809F004FB03A93068204A09F0F9
:100620002DFA0123A370C6E703A84FF47A7208F0ED
:10063000AFF8234603A9019400942246194807F015
:10064000D1FC01232B700BB0F0BD032AB3D10F4CAA
:10065000E378002BAFD158200DF010F8124E134A5A
:100660001E231F21074608F0BFF92A464FF47A736C
:1006700003A80A49376009F0D3FA03A930680C4A85
:1006800009F0FCF90123E3700BB0F0BD5415FF1F16
:10069000C85EFF1F4C15FF1F6008FF1F0024F400F9
:1006A0006D040000905EFF1F5015FF1FA008FF1F84
:1006B0007904000010B584B088790B68CC79009378
:1006C00000F001000023019302938DF804000393CE
:1006D0008DF8074054B107340C440DF1070307317E
:1006E00011F8010F03F8010FA142F9D192B1012ACB
:1006F0001FD0022A15D0032A02D0002004B010BD5A
:100700000E4B18680028F8D0694609F0D3F900208C
:1007100004B010BD69460A4807F0E8FE002004B0A6
:1007200010BD084B18680028E7D0694609F0C2F9E7
:10073000EDE76946044807F0D9FEDEE75015FF1FD4
:10074000905EFF1F4C15FF1FC85EFF1FF0B400F145
:100750004006174F00243146034600F1800243F85B
:10076000044BB34241F8047B4FF0000542F8044BC0
:10077000F5D100230F4A1049C0F8C050C0F8C4504A
:10078000C0F8C850C0F8CC50C0F8D050C0F8E05005
:10079000C0F8D420C0F8DC20C0F8D81080F8E830C9
:1007A00080F8E93080F80031C0F80C31F0BC7047B7
:1007B0000000A040000048430000C8C2DFED126AFC
:1007C00010B4073100F1C40200F1D40411F8013F64
:1007D000283B07EE903AF8EEE77AF4EEE67AF1EE8F
:1007E00010FAE2EC017A09DDB0F9143107EE103AA3
:1007F000B8EEC77A77EE277A42ED017AA242E5D1C8
:100800005DF8044B704700BF000020C230B40629D9
:100810000ED8DFE811F05B0007007000A500DC00D7
:1008200013014200D0F8081111B9002B00F03D81EE
:10083000D0ED007A00F14002041D00F18003002198
:10084000F1EE046A01E0F4EC017A92ED007AB4EE84
:10085000E77AF1EE10FA01F1010108DD90ED397A45
:10086000B4EEE77AF1EE10FA98BFC2ED007A93ED9C
:10087000007AB4EEE77AF1EE10FA02F1040206D53E
:10088000F4EEE67AF1EE10FAC8BFC3ED007A102953
:1008900003F10403D7D130BC7047D0F80811002908
:1008A000C6D1002BC4D1517A137A9FED966AD0ED50
:1008B000007A01F03F0203EB022307EE103AB8EE94
:1008C000C77AC7EE066AC0ED0F6AB3E7557A117AA8
:1008D000937AD47AD0ED007A01EB052101EB034342
:1008E00003EB0463C0F80C31517B137B03EB012352
:1008F000C0F808319EE7D0F80811002998D1002BE4
:1009000096D1517A137ADFED7F6AD0ED007A01F04B
:100910003F0103EB012307EE103AB8EEC77A87EEEA
:10092000266A80ED036AD17A937A01F03F0103EBE6
:10093000012307EE103AB8EEC77A87EE266A80EDFB
:10094000046A517B137B01F03F0203EB022307EEA5
:10095000103AB8EEC77A87EE266A80ED056A69E735
:10096000D0F8081100297FF463AF002B7FF460AF4B
:10097000517A137ADFED636AD0ED007A01F03F011E
:1009800003EB012307EE103AB8EEC77A87EE266A2A
:1009900080ED066AD17A937A01F03F0103EB0123DF
:1009A00007EE103AB8EEC77A87EE266A80ED076A3E
:1009B000517B137B01F03F0203EB022307EE103A59
:1009C000B8EEC77A87EE266A80ED086A32E7D0F87B
:1009D000081100297FF42CAF002B7FF429AF517A46
:1009E000137ADFED486AD0ED007A01F03F0103EBA6
:1009F000012307EE103AB8EEC77A87EE266A80ED3B
:100A0000096AD17A937A01F03F0103EB012307EEE3
:100A1000103AB8EEC77A87EE266A80ED0A6A517BF3
:100A2000137B01F03F0203EB022307EE103AB8EE0E
:100A3000C77A87EE266A80ED0B6AFBE6D0F80811CC
:100A400000297FF4F5AE002B7FF4F2AE517A137AD1
:100A5000DFED2C6AD0ED007A01F03F0103EB0123BA
:100A600007EE103AB8EEC77A87EE266A80ED0C6A78
:100A7000D17A937A01F03F0103EB012307EE103A9C
:100A8000B8EEC77A87EE266A80ED0D6A517B137B3C
:100A900001F03F0203EB022307EE103AB8EEC77AEB
:100AA00087EE266A80ED0E6AC4E6517A137ADFED8E
:100AB000156A01F03F0103EB012307EE903AB8EE0F
:100AC000E77AC7EE267AC0ED007AD17A937A01F000
:100AD0003F0103EB012307EE103AB8EEC77A87EE29
:100AE000266A80ED016A517B137B01F03F0203EB24
:100AF000022307EE103AB8EEC77A87EE266A80ED39
:100B0000026A97E600007A4490F8F000704700BF50
:100B100090F8EC00704700BF90F8F400704700BFF9
:100B200090F8F800704700BF10299ABF00EB8100D1
:100B300090ED000A9FED010A704700BF0000000021
:100B4000034600F13002B2EE040AF3EC017AF4EE4F
:100B5000C07AF1EE10FA08D590ED397AF4EE477AC2
:100B6000F1EE10FAC8BFB0EE670A9342EDD17047BC
:100B700090ED397A9FED0E0A034600F14002F1EE46
:100B8000046AF3EC017AF4EEC77AF1EE10FA0BDDA9
:100B9000F4EEE67AF1EE10FA06D5F4EE407AF1EED4
:100BA00010FAC8BFB0EE670A9342EAD1704700BF9F
:100BB0000000000090ED397ADFED106A034600F185
:100BC00040020021B1EE046AF3EC017AF4EEC77A38
:100BD000F1EE10FA07DDF4EEC67AF1EE10FA44BF3A
:100BE00076EEA76A01319342EED107EE901AB8EE85
:100BF000E70AC0F8041186EE800A70470000000082
:100C0000D0F80401704700BFD0F80801704700BF5A
:100C100090ED310AD0ED327AB4EEE70AF1EE10FA37
:100C200058BFB0EE670A704790ED310AD0ED327AC6
:100C3000B4EEE70AF1EE10FAD8BFB0EE670A7047DB
:100C4000D0ED317A9FED117AF4EEC77AF1EE10FA19
:100C500017DD9FED0F0A77EE807A012390ED327A4F
:100C6000DFED0A6AB4EEE67AF1EE10FAC4BF0133A2
:100C700077EE877A07EE103AB8EEC70A87EE800A59
:100C80007047DFED037A0023E8E700BF000020C2D1
:100C9000000000009FED0E0A90ED397A80ED300AD9
:100CA000034600F14002F1EE046AF3EC017AF4EE3F
:100CB000C77AF1EE10FA08DDF4EEE67AF1EE10FAFA
:100CC00044BF30EE270A80ED300A9342EDD17047E1
:100CD0000000000003299ABF00EB810090ED310A6B
:100CE0009FED010A704700BF000000003E2998BF39
:100CF00080F80011704700BFD0F80C01704700BFAA
:100D000090F8E800704700BF90F8E900704700BF16
:100D1000C0F8FC10704700BF80F8E810704700BFB3
:100D200080F8E910704700BF80ED390A704700BFB6
:100D3000A0F81411704700BF70B500F58A4506464B
:100D4000143500F12C04204604F58C74FFF7FEFCEA
:100D5000AC42F8D106F5A275012428460021FFF720
:100D6000DBFF214628460134FFF7C0FF3F2C05F585
:100D70008C75F2D1064B736144F21C530024054874
:100D80000549F0610022B46131623046F25470BD11
:100D900000007A44000048430000C8C270B500F566
:100DA0008A46143600F5A274002508E00125204685
:100DB000002104F58C74FFF7B3FFB4420AD020463B
:100DC000FFF79EFF0028F2D02046FFF79DFF002886
:100DD000ECD170BD284670BD70B500F5B0560C362C
:100DE00000F5A27403E004F58C74B4420CD02046E4
:100DF000FFF786FF05460028F5D02046FFF77CFF69
:100E0000C307F0D5284670BD0025284670BD00BF39
:100E10002DE9F04144F2205300F58A46374600227E
:100E20008046C2501436203700F5A27403E004F562
:100E30008C74B4420ED02046FFF762FF0028F6D033
:100E400020463D68FFF7DCFE04F58C742844B4426C
:100E50003860F0D144F2205358F80300BDE8F08127
:100E600044F21853C058704738B50C6804F00F04AA
:100E70004FF48C75013405FB04002C3015461A46DE
:100E8000FFF79CFC012D00D038BD06480CF052FA4B
:100E9000214604480CF09EFA0B210348BDE8384077
:100EA0000BF078BFD00AFF1F582F0100F0B50D6876
:100EB00005F00F0405F0F005402D83B00F460646FF
:100EC00004F1010446D01FDD602D3DD0702D37D0D8
:100ED000502D3BD00D2C01D8062D1DDD4FF48C7309
:100EE00003FB04642C3420460121FFF715FF204644
:100EF0000121FFF715FF337820463A46294603B013
:100F0000BDE8F040FFF782BC202D21D0302D19D054
:100F1000002DDFD10D2CE1D8012ADFD121460E486A
:100F200001920CF057FA019A0C4811460BF032FF6F
:100F3000294609480CF04EFA07480CF0FBF9CDE7BA
:100F40000625E7E70225E5E70525E3E70425E1E7D0
:100F50000125DFE70325DDE7D00AFF1F642F01002D
:100F60002DE9F043002385B00646436000F5A274E6
:100F7000012504E001353F2D04F58C7478D020461E
:100F8000FFF7BEFE0028F5D05C4806F039FF294681
:100F90005B4806F035FF2046FFF77CFE10EE100A96
:100FA0000DF04EFB02460B46564806F029FF204640
:100FB000FFF7C6FD204610EE107AFFF7D9FD384640
:100FC0008DED030A0DF03CFB9DED030A804610EE0B
:100FD000100A89460DF034FB42464B46CDE900012C
:100FE000494806F00DFF00212046FFF773FE01215E
:100FF000204610EE107AFFF76DFE38468DED030A9D
:101000000DF01EFB9DED030A804610EE100A894686
:101010000DF016FB4246CDE900014B463B4806F079
:10102000EFFE2046FFF736FED6ED017A37EE800A56
:10103000204686ED010AFFF7EBFDD6ED077AB4EE08
:10104000E70AF1EE10FA3ED42046FFF7EDFDD6EDAB
:10105000087AB4EEE70AF1EE10FA8BDD2046FFF7CE
:10106000E3FD01353F2D86ED080A04F58C7486D129
:10107000D6ED027A96ED016AD6ED066AB8EEE77A09
:101080000B20C6EE077A96ED057AC6ED017AF4EEEE
:10109000E67AF1EE10FAF4EEC77AC8BFC6ED067A2A
:1010A000F1EE10FA48BFC6ED057A0AF027FA44F2CD
:1010B0001C53F35C68B9A3B144F21C530122F254EF
:1010C00005B0BDE8F0832046FFF7A2FD86ED070AD4
:1010D000BAE753B944F21C530022F25405B0BDE8FC
:1010E000F0830B4806F0BAFEE6E70A4806F0A0FED9
:1010F00044F21C530022F254F0E700BF5C350100BB
:10110000682F0100A42F0100B82F0100E42F010077
:10111000003001003830010070B5144BC36000F599
:101120008A450646143500F5A27403E004F58C7474
:10113000AC4217D02046FFF7E3FD0028F6D020464A
:10114000FFF7FEFCD6ED037AB4EEE70AF1EE10FAF3
:10115000ECD52046FFF7F4FC04F58C74AC4286ED28
:10116000030AE7D196ED030A70BD00BF0000A0405E
:1011700070B5002300F58A4506460361143500F575
:10118000A27403E004F58C74AC4217D02046FFF73C
:10119000B7FD0028F6D02046FFF7EAFCD6ED047A2A
:1011A000B4EEE70AF1EE10FAECDD2046FFF7E0FCC2
:1011B00004F58C74AC4286ED040AE7D196ED040A7E
:1011C00070BD00BF90ED010A704700BF017070470D
:1011D00081607047F8B500F58A452DED028B0F460A
:1011E000B0EE408A16B2143500F5A27403E004F59F
:1011F0008C74AC4215D02046FFF782FD0028F6D053
:1012000039462046FFF784FD2046B0EE480AFFF736
:101210008BFD2046314604F58C74FFF789FDAC4206
:10122000E9D1BDEC028BF8BD2DE9F04144F2185133
:1012300000F58A452E4600272F4A304B2DED028BB4
:1012400080464750DFED2E8A9FED2E8A82624362F0
:101250001435183600F5A27403E004F58C74A54229
:1012600015D02046FFF74CFD0028F6D03368013337
:1012700033602046FFF7E4FCB4EEC80AF1EE10FA42
:1012800014DC04F58C74A54207F10107E9D144F29E
:10129000185358F80330DB1B00EE103AB8EEC00AC2
:1012A00088EE800ABDEC028BBDE8F0812046FFF796
:1012B000C7FC204678EE808AFFF7B6FCD8ED097AA5
:1012C000B4EEE70AF1EE10FA0FDC2046FFF7A0FCBF
:1012D000D8ED0A7AB4EEE70AF1EE10FABDD5204651
:1012E000FFF796FC88ED0A0AB7E72046FFF79CFC5B
:1012F00088ED090AE9E700BF00C0794400C079C45D
:101300000000000000008CC290ED090A704700BF89
:1013100090ED0A0A704700BF70B500F58A452DEDC3
:10132000028B06469FED118A143500F5A27403E086
:1013300004F58C74AC420DD02046FFF7E1FC002888
:10134000F6D02046FFF736FC04F58C74AC4238EE3C
:10135000008AF1D144F21853F35800EE103AB8EE77
:10136000C00A88EE000ABDEC028B70BD00000000D0
:101370002DE9F04F2DED028B06468DB08C488B4643
:1013800006F0E6FC8A4806F0E3FC894806F0E0FC3B
:1013900044F218533046F558FFF73AFD044670689A
:1013A000B7680DF04DF9804630468946FFF7B4FF27
:1013B000304696ED038AD6ED048A10EE10AAFFF7A8
:1013C00033FF10EE100A0DF03BF938EEC87ADFED6E
:1013D000797A67EE277ACDE90A0117EE900A0DF0C7
:1013E0002FF9CDE9080118EE900A0DF029F9CDE9A1
:1013F000060118EE100A0DF023F9CDE9040150465C
:101400000DF01EF9CDE90089CDE902013B462946E0
:101410002246694806F09CFC654806F099FC06F5F2
:10142000A2764FF001094FF0000A07E009F1010927
:10143000B9F13F0F06F58C7600F0B0803046FFF72B
:101440005FFC0028F2D03046FFF75EFB3046FFF726
:101450005FFB3046FFF760FB3046FFF761FB08217A
:1014600056480BF097FC494655480BF0B3FFB9F1CD
:10147000090F40F39880022152480BF08BFC304654
:10148000FFF708FC10EE100A0DF0DAF85FFA8BF89F
:1014900041EC100B41464A480BF0A6FF01214A4897
:1014A0000BF078FC5546002421E0062147480BF05C
:1014B00071FC294642480BF08DFF022144480BF095
:1014C00069FC21463046FFF72FFB10EE100A0DF0A5
:1014D000B7F841EC100B414639480BF085FF013459
:1014E000012139480BF056FC102C09D03D46092D3E
:1014F00005F10107D9DC012136480BF04BFCD4E79C
:101500002F480BF017FF092133480BF043FC3046FE
:101510000021FFF7DFFB10EE100A0DF091F841EC0F
:10152000100B022126480BF05FFF0A212B480BF01D
:1015300031FC30460121FFF7CDFB10EE100A0DF013
:101540007FF841EC100B02211D480BF04DFF0C21E0
:1015500023480BF01FFC3046FFF7CEFB002322464A
:10156000014617480BF0F6FE08211E480BF012FC4E
:101570003046FFF749FB22460146002310480BF096
:10158000E9FE09F101090E480BF0D4FEB9F13F0F55
:101590000AF1100A06F58C767FF450AF0DB0BDEC61
:1015A000028BBDE8F08F01210A480BF0F3FB62E7E4
:1015B0005C35010000007A44E83201008833010004
:1015C000D00AFF1F603701009433010098330100F7
:1015D0000834010018340100A0330100AC330100CD
:1015E000B8330100C83301002DE9F04700F5A275BA
:1015F00010EE108A0F4691462E464FF0010A06E083
:101600000AF1010ABAF13F0F06F58C767DD030461B
:10161000FFF776FB0028F3D000230A2239467D48E5
:101620000BF098FE01217C480BF0B4FB40460DF016
:1016300007F841EC100B002176480BF0D5FE012194
:1016400075480BF0A7FB494672480BF0C3FE012119
:1016500071480BF09FFB51466E480BF0BBFE012119
:101660006D480BF097FB002421463046FFF75CFAEB
:1016700010EE100A0CF0E4FF41EC100B022165485B
:101680000BF0B2FE0134012163480BF083FB082C00
:10169000EAD130460021FFF71DFB10EE100A0CF0D6
:1016A000CFFF41EC100B02215A480BF09DFE0121A7
:1016B00059480BF06FFB30460121FFF70BFB10EE92
:1016C000100A0CF0BDFF41EC100B022151480BF049
:1016D0008BFE012150480BF05DFB30460221FFF7E5
:1016E000F9FA10EE100A0CF0ABFF41EC100B0221DE
:1016F00048480BF079FE0AF1010A46480BF01AFE41
:10170000BAF13F0F06F58C7681D1012604E001364F
:101710003F2E05F58C757BD02846FFF7F1FA00289F
:10172000F5D000230A2239463C480BF013FE012174
:1017300039480AF051FA40460CF082FF41EC100B98
:10174000002136480BF050FE012133480AF044FADC
:10175000494632480BF03EFE01212F480AF03CFA80
:1017600031462E480BF036FE01212B480AF034FAA0
:10177000002421462846FFF7D7F910EE100A0CF096
:101780005FFF41EC100B022124480BF02DFE0134C9
:10179000012121480AF020FA082CEAD1284600212C
:1017A000FFF798FA10EE100A0CF04AFF41EC100B0C
:1017B00002211A480BF018FE012117480AF00CFA12
:1017C00028460121FFF786FA10EE100A0CF038FFC8
:1017D00041EC100B022111480BF006FE01210E48CE
:1017E0000AF0FAF928460221FFF774FA10EE100AFF
:1017F0000CF026FF41EC100B022108480BF0F4FD21
:10180000013606480BF096FD3F2E05F58C7583D109
:10181000BDE8F087D00AFF1F642F0100A40AFF1F54
:101820000B49DFED0C6ACB6D0A6E0B480B4903FBCD
:1018300002F24FF47A7303FB02F307EE903AF8EEEC
:10184000E77A642387EEA67A036081ED007A704719
:10185000045DFF1FE4388E3E1808FF1F405EFF1F27
:1018600010B5074C20460BF065FD064B2046196865
:101870000BF0B0FD03210448BDE810400BF08ABA1C
:10188000D00AFF1F0416FF1FE033010038B50446DD
:1018900008460D460EF0F4F92368024629465B68B7
:1018A00020469847054620460BF044FD284438BDA5
:1018B0002DE9F04149484A4E4A4C4B4D06F048FA52
:1018C0004A4B4B49D96011214A4A19704A4959601B
:1018D000DA634A494A4A4B481961DE614A494B4E2C
:1018E000DC621A644A4C98614FF07C5200274948E8
:1018F0009D621C63484D494CDA6419653C220C21F9
:10190000C3F8C8604FF496769F6358654FF4FA7732
:101910000220A3F8A8209965012200215D621C62C3
:1019200064255C615C64DE6632245E6640F61C46BB
:101930009F86587058721A72DA6583F848101D66CF
:101940009C66DFF8E0E01E67354FC3F88010C3F8EF
:101950008400C3F8D820C3F8DC20C3F8E020C3F823
:10196000D420C3F88810C3F89040C3F8B0404FF0BB
:101970000A08C3F8AC10C3F8B820C3F8BC0041F2A1
:10198000040CC3F8C0505A2683F8CC2083F8CD202D
:101990004FF47A7540F2D66283F8CE10A3F8D010D7
:1019A000FF2441F288310520C3F87480C3F878C061
:1019B000DE67C3F89450C3F898E0C3F89C70C3F88E
:1019C000B440A3F8C600C3F88C10A3F8C410A3F861
:1019D000A020A3F8A220BDE8F08100BFE4330100FD
:1019E000CDCC4C4000008242CDCCCC3D045DFF1FED
:1019F000666686400000204220A1070000004040AB
:101A00000000A040333383409A9979409A99993ED7
:101A1000000020C10AD7233D33337340CDCC4C3E68
:101A200000C020440000684238B5504D504C514829
:101A300000232DED028B2B7094ED038AFFF798FBAA
:101A4000B4EEC08AF1EE10FA48BF0423494848BFFB
:101A50002B70FFF761FBD4ED047AB4EEE70AF1EEE8
:101A600010FA03D52B7843F010032B704148FFF791
:101A70004BFCD4ED0B7AB4EEE70AF1EE10FA03DD7D
:101A80002B7843F040032B7000233A486B70FFF72C
:101A90003FFCD4ED0C7A354B3648B4EEE70AF1EE54
:101AA00010FA44BF01225A700023EB70FFF760FB6D
:101AB00030482E4DB0EE408AFFF72EFBD4ED117A60
:101AC0002C4838EE400AB4EEE70AF1EE10FAC4BF33
:101AD0000123EB70284D00232B70FFF749FB94ED99
:101AE0000A7AD4ED037A234877EEC77AB4EEE70A90
:101AF000F1EE10FAC4BF04232B70FFF70DFBD4EDF9
:101B0000047A94ED0A7A77EE877AB4EEE70AF1EE7A
:101B100010FA03D52B7843F010032B701548FFF70C
:101B2000F3FBD4ED0B7A94ED107A77EEC77AB4EE2E
:101B3000E70AF1EE10FA03DD2B7843F040032B7037
:101B400000230C486B70FFF7E3FBD4ED0C7A94EDA7
:101B5000107A094B77EE877AB4EEE70AF1EE10FAC5
:101B600044BF01225A70BDEC028B38BDE85CFF1FF8
:101B7000045DFF1F1017FF1F5C15FF1F38B5554B85
:101B80001B682DED028B002B70D0534D2B68053355
:101B9000B3F57A7F40F394800023DFED506A2B6029
:101BA0004F4C9FED508AD4ED2C7ADFED4F8AB8EE82
:101BB000E77AD4ED2D7AF8EEE77A062077EEC77A49
:101BC00067EEA67AC7EE886A36EE877AFDEEC77AA8
:101BD00017EE901A09F046FA022144480BF0DAF8A1
:101BE00043480BF0A7FB062142480BF0D3F8D5ED94
:101BF000007AF8EEE77A67EEA87A17EE900A0CF012
:101C00001FFD41EC100B022139480BF0EDFB0D21BB
:101C100039480BF0BFF895ED007AD4ED2C6AD4ED7D
:101C20002D7AF8EEE66AB8EEC77AF8EEE77A27EE94
:101C3000287A77EEE67A67EE277A87EE887A77EE6B
:101C4000267A17EE900A0CF0FBFC41EC100B0221F7
:101C500027480BF0C9FB022124480BF09BF8BDEC90
:101C6000028B2348BDE838400BF064BB1C4B234A71
:101C7000D3F8B010D3F8B43012685B1A632B0FDDC1
:101C8000BDEC028B1E4803FB02F380FB0302DB1753
:101C9000C3EB621319440620BDE8384009F0E2B9ED
:101CA000BDEC028B174803FB022380FB0302DB170A
:101CB000C3EB221211440620BDE8384009F0D2B926
:101CC00007EE903ADFED086A2B60F8EEE77A67EEF0
:101CD000A66A65E79415FF1FE85DFF1F000000007E
:101CE000045DFF1F0000C842CDCCCC3D6037010031
:101CF000D00AFF1F043401000C3401001808FF1F34
:101D00001F85EB51CBF08D2830B52DED028BC248ED
:101D1000C24C83B00BF00EFBBF480BF00BFBBE4870
:101D20000BF008FB0D21BE480BF034F8D4F8AC30B2
:101D3000012B11D0BB4CB848217800230A220BF0AC
:101D400009FB2378052B7BD8DFE813F04C01510108
:101D500056015B01600147010921B3480BF01AF8F5
:101D6000B248FFF7D9F9D4ED047AB4EEE70AF1EE00
:101D700010FA03D50F21AE480BF00CF8AB48FFF773
:101D8000F7F9D4ED037AB4EEE70AF1EE10FA03DDC9
:101D90000E21A8480AF0FEFFA448FFF7E9F9A3487E
:101DA000B0EE408AFFF7B8F9D4ED117A38EE400A68
:101DB000B4EEE70AF1EE10FA03DD11219E480AF0B5
:101DC000E9FF9A48FFF730FAD4ED0B7AB4EEE70A50
:101DD000F1EE10FA03DD0C2198480AF0DBFF93487E
:101DE000FFF722FAD4ED0C7AB4EEE70AF1EE10FA1E
:101DF00003D50D2192480AF0CDFF924B8B481B680A
:101E0000012B00F08681FFF787F9D4ED047A834D2A
:101E1000B4EEE70AF1EE10FA12DD8448FFF7A8F9F4
:101E2000D5ED037AB4EEE70AF1EE10FA08D57D4B52
:101E30001B78052B00F08081082183480AF0AAFF57
:101E4000022182480AF0A6FF122009F057FB012860
:101E500000F02681112009F051FB012800F02A81B1
:101E60007B4B1C68012C00F02E8102217748794CB5
:101E70009FED798A0AF08EFF784B674819680BF05E
:101E8000A9FA65480BF056FA042175480AF082FF5A
:101E90000B2009F033FB002301460A225E480BF0B9
:101EA00059FA0C2009F02AFB002301460A225A485D
:101EB0000BF050FA142009F021FB002301460A22FE
:101EC00055480BF047FA152009F018FB0A220023A9
:101ED000014651480BF03EFA062162480AF05AFFCB
:101EE0002368DD074FF001014CBF5F485F480AF0EF
:101EF00051FF236898074FF001014CBF5A485B48D7
:101F00000AF048FF23685A074FF001014CBF5648BA
:101F100056480AF03FFF23681B074CBF52485348FE
:101F200001210AF037FF042151480AF033FF112044
:101F300009F0E4FA002301460A2237480BF00AFAB6
:101F4000102009F0DBFA002301460A2232480BF088
:101F500001FA122009F0D2FA002301460A222E4883
:101F60000BF0F8F9132009F0C9FA0A220023014600
:101F700029480BF0EFF918213E480AF00BFF3E4BC1
:101F8000D3ED007AF8EEE77A67EE887A17EE900ADA
:101F90000CF056FB41EC100B00211F480BF024FA0B
:101FA0001D2136480AF0F6FE354BD3ED007AF8EEE7
:101FB000E77A67EE887A17EE900A0CF041FB41EC65
:101FC000100B002114480BF00FFA02212D480AF0E3
:101FD000E1FE03B0BDEC028B30BD07212A480AF0B8
:101FE000D9FE2DE7062129480AF0D4FE28E707216B
:101FF00027480AF0CFFE23E7072126480AF0CAFE49
:102000001EE7082124480AF0C5FE19E70B212348E2
:102010000AF0C0FE14E700BFD00AFF1F045DFF1FD7
:102020001C340100F85CFF1F2C3401001017FF1F47
:102030003834010048340100583401006C34010088
:102040007C340100A015FF1FB0340100603701008F
:102050002C5EFF1F605EFF1FCDCCCC3D7015FF1FB7
:10206000283501003035010038350100B84601003F
:102070003C350100443501009015FF1F603501001B
:10208000585EFF1F80350100EC340100BC340100B4
:10209000C4340100D8340100E0340100CC34010024
:1020A0000E2128480AF076FE112009F027FA0128AF
:1020B0007FF4D6AE0A2124480AF06CFE234B1C683C
:1020C000012C7FF4D2AE112121480AF063FE214693
:1020D00020480AF05FFE204A204B12680192019AC4
:1020E0001B689FED1F7A9B1A07EE903AF8EE677A0D
:1020F00067EE877A17EE900A0CF0A2FA41EC100B0B
:10210000002118480BF070F9214612480AF042FEEF
:10211000ABE6FFF701F8D4ED097AB4EEE70AF1EE89
:1021200010FA7FF789AE16210F480AF033FE0A2114
:102130000E480AF02FFE83E60A210C480AF02AFE18
:102140007EE600BFF4340100043501002C5EFF1F61
:102150001035010024350100045FFF1F305EFF1FB2
:102160006F12833AD00AFF1F8C340100A43401009F
:102170002DE9F0478F4C904FD4F88430012B8AB072
:1021800000F04481032B58D08C4E8D4DD4F8803014
:1021900095ED000A8B48012B04BFB1EE400A85ED96
:1021A000000A05F0DDFE3368002B40F0C980854849
:1021B00005F0A4FED4F8843087ED000A012B00F06E
:1021C000CD80DFED817AB4EEE70AF1EE10FA11DC92
:1021D000DFED7E7AB4EEE70AF1EE10FA0AD47C4A1B
:1021E0007C4B12680992099A1A6000232B600AB08E
:1021F000BDE8F0877648774903680893089B0C6828
:102200000068754A07901B1B07EE903A9FED737AA2
:10221000D2ED006A079BF8EE677A27EE800A0B6022
:1022200080EE076A00232B60C6EE077A77EEA67A67
:10223000C2ED007A0AB0BDE8F087DFF8C081684DD2
:10224000D8F800005D4E012300220F212B6008F01A
:10225000A5F82B68012B336800F0FA80002B40F0C2
:102260007581D8F80030DFF89891D86F036B196941
:102270008DB2C9F8005008F011F9B4F8A220DFEDD2
:10228000596A94ED267ADFF878A140F6E44303FB1F
:1022900005F1B1FBF0F0811A09B207EE901A27EEB2
:1022A000267AF8EEE77AD9F80030454DC7EE876A0E
:1022B000632BC5ED006A00F33D8100232B6033687A
:1022C000002B3FF463AF022147480AF063FDD8F8C2
:1022D0000030D9F80020D86F40F6E44303FB02F841
:1022E00008F0DCF8B4F8A230B8FBF0F007EE103AD2
:1022F00007EE900AB8EEC77AF8EE677A77EEC77AFB
:1023000017EE900A0CF09CF941EC100B02213748B3
:102310000BF06AF8022134480AF03CFD28680CF002
:102320008FF941EC100B022130480BF05DF80221CF
:102330002F480AF02FFD02212B480AF02BFD25E73C
:10234000204805F0DBFD10EE100A0CF079F941ECA5
:10235000100B022125480BF047F828E7204B1B689B
:10236000012B00F02A81022B7FF43FAFDFED217AB1
:10237000B4EEE70AF1EE10FA07DCDFED1F7AB4EEF7
:10238000E70AF1EE10FA40F1418111481149036862
:102390000593059B0C6800680F4A04901B1B07EE11
:1023A000903A9FED0E7AD2ED006A049BF8EE677AC0
:1023B00033E700BF045DFF1FEC5CFF1FE05CFF1F05
:1023C000545EFF1F005EFF1F0000FA430000FAC3C7
:1023D000045FFF1F6815FF1F405EFF1F00007A4467
:1023E0003008FF1F17B7D13860370100D00AFF1F30
:1023F000C035010000C82F4800A08CC6705EFF1FCA
:102400007C5EFF1F00709446007094C61FED037A37
:10241000D7ED007AF4EEC77AF1EE10FA07D51FED8A
:10242000067AF4EEC77AF1EE10FA3FF706AFDFF85E
:10243000AC82984DD8F80000974E022300220E215E
:102440002B6007F0ABFF2B68012B33687FF406AFDE
:10245000002B40F0E280D8F80030DFF88492D86F8B
:10246000036B1D69ADB2C9F8005008F017F8B4F855
:10247000A03094ED277ADFED896AD8F8002040F685
:10248000E44A0AFB05F5B5FBF0F0C51A2DB207EEDC
:10249000905A27EE267AF8EEE77AD9F80030804D88
:1024A000D06FC7EE876A0AFB03FAC5ED006A07F032
:1024B000F5FFB4F8A030BAFBF0F000B2C31A002B5D
:1024C000B4F8C620B8BF5B429342BCBF00232B6068
:1024D0003368002B3FF45AAE022172480AF05AFCCE
:1024E000D8F80030D9F80020D86F40F6E44303FB59
:1024F00002F807F0D3FFB4F8A010B8FBF0F000B278
:10250000411A69480AF066FF022166480AF042FC57
:1025100028680CF095F841EC100B022162480AF093
:1025200063FF032161480AF035FC02215D480AF08F
:1025300031FC2BE6D8F80030D86F07F0AFFFDAF89F
:10254000003064389842FFF4B8AEB8E65648DFF879
:102550009091DFF888A10AF0EDFE0C2154480AF0B2
:1025600019FC0C2153480AF015FCD8F800203368F8
:10257000D06F026B11698DB2C9F80050002B3FF487
:102580007AAE07F08BFF40F6E44100230A2201FBFC
:1025900005F1B1FBF0F144480AF0DCFE02214148AC
:1025A0000AF0F8FBB4F8A2103F480AF013FFDAF87B
:1025B0000030D9F80050D86F5DE6DFED3F7AB4EE19
:1025C000E70AF1EE10FA0DDCDFED3C7AB4EEE70A33
:1025D000F1EE10FA06D43A4A3A4B12680392039A83
:1025E0001A6002E63648374903680293029B0C687A
:1025F0000068354A01901B1B07EE903A9FED337A35
:10260000D2ED006A019BF8EE677A06E62C4A2D4B64
:1026100012680692069A1A60E7E52348DFF8C09030
:10262000DFF8B8A00AF086FED4F88430012B4FF012
:102630000B010CBF264827480AF0ACFB0C211D48B3
:102640000AF0A8FBD8F800203368D06F026B156938
:10265000ADB2C9F80050002B3FF407AF07F01EFFE2
:1026600040F6E44100230A2201FB05F1B1FBF0F141
:102670000D480AF06FFE012117480AF08BFBB4F8F1
:10268000A01009480AF0A6FEDAF80030D9F8005088
:10269000D86FEAE63008FF1FE05CFF1F17B7D1389C
:1026A000545EFF1F60370100D00AFF1FAC350100E8
:1026B000B03501009C3501000000FA430000FAC368
:1026C000045FFF1F6815FF1F405EFF1F00007A4474
:1026D000843501009035010018340100705EFF1F41
:1026E0007C5EFF1F2DE9F041A34D2B6884B0002BC9
:1026F0007ED0A24CA24FA34EDFF8D082D4F888300F
:102700009E4D012B00F08E80D6ED006A2A6EEB6D97
:102710009FED9D6ADFED9D5A994903FB02F24FF44C
:102720007A7303FB02F307EE903A66EE866AB8EE20
:10273000E77AC6EE877A67EEA57AFDEEE77A17EEBE
:10274000903A632BC7ED007A4DDDC7EE067A64231D
:102750000B60C6ED007AD8F80030002B40D0D4F8DA
:102760008430864D012B00F09180032B00F0F18026
:10277000022B00F0F580022185480AF00BFB854B07
:1027800018680BF05DFF41EC100B022182480AF043
:102790002BFE022181480AF0FDFA02217C480AF052
:1027A000F9FA39687C480AF015FE06217C480AF0DF
:1027B000F1FA96ED007ADFED747A67EE277A17EE7C
:1027C000900A0BF03DFF41EC100B022172480AF019
:1027D0000BFE032173480AF0DDFA6F480AF0AAFDE8
:1027E00004B0BDE8F081002BBCBF00230B60B2E752
:1027F0006D4E624C33680293029A42F228339A4239
:1028000051D833680393039A42F210739A4254D812
:10281000D4F888305A4F5B4EDFF8B081574D012B0A
:102820007FF472AF6148FEF777FDDFED617AD5F88E
:1028300070E0A86F6B6FE96F20EE270ACEEB000007
:10284000FCEEC07AC91ACDED017ABDF804208842A9
:10285000CEEB020240F3898001FB0222411C92FB75
:10286000F1F11944226EE36D9FED477A01FB02F10D
:1028700003FB01F101EB8101490007EE901AF8EE2C
:10288000E77AC7EE876AC6ED006A41E7494B1B68E5
:10289000012B4FF00A010CBF474848480AF07AFA6A
:1028A000D5F8843061E74148B4F9D02094ED130A9B
:1028B00094F84810FEF78EFCA3E73C48DFF80C8143
:1028C0002F4FFEF729FDDFED3A7A266FDFED2E6AF6
:1028D00020EE270A04F1740007C8FCEEC07A891BB9
:1028E000CDED017ABDF80430121A9142A3EB060334
:1028F000C6BF02FB03330131534393FBF1F318448A
:10290000236EE26D1F4ED8F80010386003FB00F311
:1029100002FB03F303EB83035B0007EE903AF8EE50
:10292000E77A012387EEA67A2B6086ED007A0029EC
:102930003FF4E4AE022116480AF02CFA16480AF0D9
:10294000F9FC59211E480AF025FA13480AF0F2FC56
:10295000D4E610211B480AF01DFAD4F8843007E7AA
:10296000072119480AF016FA05E701FB02F292FB6B
:10297000F0F1194476E700BFF05DFF1F045DFF1F13
:102980001808FF1F405EFF1FE4388E3E0000C8425B
:1029900060370100EC5CFF1FD00AFF1FC03501004B
:1029A000543601005C360100045FFF1F1017FF1F43
:1029B00000007A443008FF1F203601002C36010049
:1029C000C4350100383601004C3601004008FF1FB5
:1029D00030B5112083B008F091FD012818D01220E5
:1029E00008F08CFD012813D000210B2008F080FD99
:1029F00000210C2008F07CFD0021152008F078FD56
:102A00002749284B0120002208701A6003B030BD0E
:102A10000121152008F06CFD234A244C244B126838
:102A2000D4F88C1001921B68019A1E4D0B449342FE
:102A30004FF00201296005D901210C2008F058FD52
:102A400003B030BD1B4BD4ED257A93ED007AF8EE40
:102A5000E77AF4EEC77AF1EE10FAEDD401210B20FB
:102A600008F046FD94F8CC3003242C6043B10C4BA5
:102A700002221A7000210C2008F03AFD03B030BD8C
:102A8000122008F03BFD012808BF054B4FF0110054
:102A900008BF1C7008F032FD0128EBD1E7E700BF4A
:102AA000F85CFF1F0C16FF1F045FFF1F045DFF1F74
:102AB000485CFF1FEC5CFF1FF0B5684E684D346842
:102AC0002B689C4287B039D014F0010155D014F026
:102AD000020149D014F004013DD0E3070ED52B6864
:102AE000DF070BD45F4F3A68002A00F082805E4B0C
:102AF0001B680193019B93426DD83468A0070DD5E4
:102B00002B6899070AD4594F3A68002A4CD0564B83
:102B10001B680393039B934238D8346862070DD532
:102B20002B685B070BD4524F3A68002A7ED04E4B7D
:102B30001B680593059B934268D834680CB107B0B5
:102B4000F0BD2146162008F08DFA2146172008F026
:102B500089FA07B0F0BD052008F084FA2B683468C4
:102B600003F0FB032B60B8E7172008F07BFA2B6813
:102B7000346803F0FD032B60ACE7162008F072FA0E
:102B80002B68346803F0FE032B60A0E7394B172055
:102B9000D3F8901008F066FA2B68346843F002030B
:102BA00000222B603A60B9E733480AF0C3FB0C21DE
:102BB00032480AF0EFF830480AF0BCFBFF2117203A
:102BC00008F050FA284B2E4A1968029102991268AF
:102BD0000A443A609CE7274B1620D3F8901008F07F
:102BE00041FA2B68346843F0010300222B603A60FD
:102BF00084E7FF21162008F035FA1B4B204A19689C
:102C00000091009912680A443A6071E7194B052057
:102C1000D3F8901008F026FA2B68346843F00403C8
:102C200000222B603A60002C89D18AE712480AF012
:102C300081FB0C2113480AF0ADF80F480AF07AFB2B
:102C4000FF21052008F00EFA074B0D4A1968049180
:102C5000049912680A443A606AE700BF0C16FF1F25
:102C6000605EFF1FEC5DFF1F045FFF1FF45DFF1F31
:102C7000F85DFF1F045DFF1FD00AFF1F60360100D3
:102C80002008FF1F703601002DE9F047514EDFF894
:102C900068813368DFF86491D86F4F4D0F2107F0DA
:102CA0008BFE0023012222214C48C8F80030C9F8CD
:102CB00000200AF06FF8D8F80030132B1FDC40F624
:102CC000E4473368B5F8A0A0D86F036B1C6907F020
:102CD000E5FBA4B2012107FB04F4B4FBF0F4404887
:102CE0005444A5F8A0400AF055F8642008F03EFCD2
:102CF000D8F800300133132BC8F80030E1DDB5F807
:102D0000A030384A3848A2FB03129B1A02EB530347
:102D1000C3F30F131946A5F8A0300AF05BFB1D2181
:102D200032480AF037F8022131480AF033F82E48C9
:102D30000AF000FB00231A460E213068C8F8003064
:102D400007F02CFB022322212448C9F800300AF0A6
:102D500021F8D8F80030132B1FDC40F6E447336825
:102D6000B5F8A290D86F036B1C6907F097FBA4B26B
:102D7000012107FB04F4B4FBF0F419484C44A5F816
:102D8000A2400AF007F8642008F0F0FBD8F8003001
:102D90000133132BC8F80030E1DDB5F8A230114A39
:102DA0001148A2FB03129B1A02EB5303C3F30F1348
:102DB0001946A5F8A2300AF00DFB1D210D4809F0B7
:102DC000E9FF02210A4809F0E5FF0748BDE8F0479E
:102DD0000AF0B0BA705EFF1F045DFF1F803601006D
:102DE000C436010087611886D00AFF1FA43601008F
:102DF00060370100C83601007815FF1F3008FF1F3B
:102E0000F0B5D54BD54C1B68D54D2DED048B40F25C
:102E10005131082283B02160E271002B00F0C081A3
:102E2000D5ED167A95ED097AF8EEE77AF2EE046AB6
:102E300027EE877A27EE267ABCEEC77A8DED017AE7
:102E4000BDF8043023721A12627295ED077AC54BF1
:102E5000C54A1B68A37267EE877AB2EE049A67EEE2
:102E6000897A1B12FCEEE77A1668CDED017AE372DF
:102E7000BDF80430D5F8DC20B849BC48A3734FEA4C
:102E8000232E371284F80FE026736773FDF712FCC8
:102E9000B74BB84A1B681088A072DEB2267206EBE8
:102EA000860703EB83067F00001246F3D71640F235
:102EB000553ED5F8DC20A94927731B1208276673F5
:102EC000E0720026A948C4F800E06372E771A673B7
:102ED000E673FDF7EFFB40F25633A7482360E77136
:102EE000FEF770F9DFEDA59AA348DFEDA58A9FED07
:102EF000A58A20EE290AFCEEC07A17EE903A2372DA
:102F0000FEF760F9A04B9C4893ED007AC7EE297A52
:102F100020EE290AFDEEE77ABCEEC00A17EE902AF1
:102F200010EE103A42FA07F1C3F30723A272E172DE
:102F30006372FEF779F920EE090A8F48FDEEC07A38
:102F400017EE903A2373FEF76FF920EE090AD5F8D1
:102F5000DC2082498548A673BDEEC00AE67310EEF8
:102F6000103A43F307236373FDF7A4FB022008F034
:102F7000FDFA864A864B117890782172D17892F8C2
:102F800001E0A0725A78D878E172997884F809E063
:102F9000627393F800E0D5F8DC20A17340F25A3355
:102FA000E0736E49714884F80CE02360E771FDF727
:102FB00081FB784BD5F8DC20197858782172997804
:102FC0006072A172D8781979E0722173D8799979F1
:102FD00093F805E0A17340F25E336049E073634803
:102FE00084F80DE02360E771FDF764FB022008F030
:102FF000BDFA694BD5F8DC20197858782172997898
:103000006072A172D8781979E0722173D8799979B0
:1030100093F805E0A1734FF45C735049E073534893
:1030200084F80DE02360E771FDF744FB022008F00F
:103030009DFA40F2733350482360E771FEF76CF855
:1030400020EE280A4C48FCEEC07A17EE903A237224
:10305000FEF762F820EE280A4748BCEEC00A10EEE0
:10306000103AC3F307236372FEF782F820EE280AB2
:103070004148FCEEC07A17EE903AA372FEF778F85A
:1030800020EE280A3C48BCEEC00A10EE103AC3F30A
:103090000723E372FEF73CF930EE080A3648FCEEEF
:1030A000C07A17EE903A2373FEF732F930EE080A31
:1030B0003148BCEEC00A10EE103AC3F30723637325
:1030C000FEF722F930EE080A2B48FCEEC07A17EE24
:1030D000903AA373FEF718F930EE080AD5F8DC2011
:1030E0001E492248BCEEC00A10EE103AC3F3072373
:1030F000E373FDF7DFFA022008F038FAE96D2B6E72
:10310000022211FB03F3C3F307211046237240F29E
:1031100079336172E271236008F028FA40F2723369
:1031200015482360E771FDF79BFE20721248FDF7FA
:1031300097FED5F8DC200949A67240FA07F30B4840
:103140006372E67226736673A673E67303B0BDEC12
:10315000048BBDE8F04021E0A015FF1F7C15FF1F88
:10316000045DFF1F9015FF1F585EFF1F245EFF1FA9
:103170001808FF1F1E08FF1F1017FF1F0000C8427E
:1031800000007A4433938843EC5CFF1FE85CFF1F28
:103190005C15FF1F4408FF1F4C08FF1FFDF78ABA8C
:1031A000D5ED167A95ED067AF8EEE77AF2EE046A36
:1031B00027EE877A27EE267ABCEEC77A8DED017A64
:1031C000BDF80430237243FA02F262723DE600BF9A
:1031D00010B5134C134A2368101D12F8011F9042BA
:1031E00041EA0323F9D1104A236003F1004313603D
:1031F0000E4BD3F88430022B08D00D4B1B68012BEB
:1032000000D010BDBDE81040FEF72ABBD2ED007A19
:10321000084BF8EEE77AC3ED007AFEF7A9FFECE77A
:103220005C5EFF1F3F5CFF1F0416FF1F045DFF1F56
:103230006C5EFF1F545EFF1F70B51F4B1F4C5E7A04
:103240009A7A2168DB7A1E481E4D42EA062243EA3A
:103250000222012902602A6019D013461A4AD2F8C4
:103260008420A3F50003022A2B601BD02368012BC6
:1032700000D070BD15480AF05DF8296813480AF0BF
:10328000A9F803211248BDE8704009F083BD0F483A
:103290000AF050F80023102229680C480AF05AF866
:1032A0002B68DBE707EE903A0A4AF8EEE77AC2EDC0
:1032B000007AFEF75DFFD9E7385CFF1F6C5EFF1FE9
:1032C0005C5EFF1F0416FF1F045DFF1FD00AFF1F77
:1032D000E0330100545EFF1F08B5154A137BD27A14
:1032E000FF2B13D05BB242EA0323124A1249D2F8F1
:1032F000842003EB830303EB83039B00022A0B6010
:103300000BD00E4B1B68012B03D008BDFF2AE9D15F
:10331000FBE7BDE80840FEF7A3BA07EE903A084A7B
:10332000F8EEE77AC2ED007AFEF722FFE9E700BF88
:10333000385CFF1F045DFF1F0416FF1F6C5EFF1F3C
:10334000545EFF1FF0B57A4D7A4C024683B0294691
:103350007948FDF797F8D4F88430022B6CD02B68AD
:10336000A3F19A02E52A0AD903F47F63B3F5C07F7B
:10337000724E14D03368012B1FD003B0F0BD704BD8
:103380006E4E1B68012B53D0002269496D48FDF732
:103390008DFD2B6803F47F63B3F5C07FEAD1684BE2
:1033A00063491B686748012B94F8CE3060D0002237
:1033B000FDF75AFD3368012BDFD1614B1B68012BF0
:1033C000DBD1614B61481B6801930A2200230199FC
:1033D00009F0C0FF2A68564B002ADB79C0F29D80B5
:1033E0005B495C480CF018FC5A480CF049FC01465B
:1033F000584809F0CFFC2C684D4B14F080447DD127
:10340000DB798BB12B1954491A7A52480CF004FC21
:1034100050480CF035FC01464E4809F0BBFC013425
:10342000EB79E4B2A342EDD8484809F083FFA4E762
:103430003268012AA8D1A8E7D4F8D4202B68012A41
:1034400044D0022A33D0032A16D0042A88D1D900C6
:1034500042491A4648BFC3F311228A4280D12A7AD0
:10346000334E002A7FF47CAFFFF736FF336877E7EF
:103470003268012A9BD19BE740F22252934253D0FB
:1034800040F22352934230D040F2215293427FF4D3
:1034900067AF3348334E07794179C278807801EBC2
:1034A000072101EB024202EB0062326058E740F272
:1034B000C132934204D040F2C23293427FF450AF03
:1034C000FFF7BAFED4F8D4202B68BCE740F2C13233
:1034D00093420DD040F2C23293427FF441AFFFF7E6
:1034E00077FED4F8D4202B68ABE71D481E4ED2E7F8
:1034F000FFF7A2FED4F8D4202B68A2E71B4D154C91
:103500000FCD0FC495E8030044F8040B204620F8C3
:103510001419152109F03EFC86E715490D4822F0E3
:1035200060420CF079FB5FE70D48124EB3E700BF35
:10353000385CFF1F045DFF1F245EFF1F4008FF1F54
:103540006C5EFF1F1017FF1F045FFF1FD00AFF1FD5
:103550001C370100605CFF1F4837010014F20100B6
:10356000505CFF1F0416FF1FFC5DFF1F303701007A
:10357000F4360100E45CFF1FBD4B1B78052B00F007
:10358000A4802DE9F041BB4CBB4DBC4E636EE26E96
:10359000BB482B602DED028B3260FDF7B9FED4EDF8
:1035A0000C7AB748B4EEE70AF1EE10FA44BF0023F4
:1035B0002B60FDF7A9FED4ED0B7AB4EEE70AF1EE2D
:1035C00010FA02DD002333602B60AD48A94FFDF7F0
:1035D000CFFDD4ED037AAA48B4EEE70AF1EE10FA73
:1035E000C4BF00232B60FDF7C3FDD4ED037AA448CC
:1035F000B4EEE70AF1EE10FAC4BF00232B60FDF72A
:103600008BFDD4ED047AB4EEE70AF1EE10FA62D540
:10361000002333602B68984F002B46DD9848DFF875
:103620005482FDF775FED4ED0E7AB4EEE70AF1EEA2
:1036300010FA00F1A080934B91481B688D4F012B2D
:1036400000F0BD80FDF794FDD4ED067A94ED087A84
:1036500077EEC77AB4EEE70AF1EE10FA25DDD5ED84
:10366000007A8748B8EEE78AFDF782FD7B6EBA6E76
:1036700097ED067AD7ED086A9FED836A9B1A77EE7D
:10368000666A07EE903A30EE660AF8EEE77A37EEB1
:10369000667A27EE800AC0EE077A77EE867A38EEF1
:1036A000678ABDEEC88A85ED008A3368734A002BAD
:1036B000AFBF2B682B6800211160002B01DA0023BB
:1036C0002B60BDEC028BBDE8F0816C496A4A002397
:1036D0000B60136070476A48FDF71EFDD7ED077A4F
:1036E000B4EEE70AF1EE10FA92D43368DFF88C8179
:1036F000002B8FDD6248FDF707FED7ED0F7AB4EEA1
:10370000E70AF1EE10FA00F390805D48594FFDF79B
:1037100003FDD4ED077A94ED327A77EE877AB4EE32
:10372000E70AF1EE10FA7FF575AFD6ED007A54484E
:10373000B8EEE78AFDF7F0FC97ED1B7AD7ED076A44
:103740009FED516AD7ED327AB8EEC77A30EE660A4D
:1037500036EE476A76EEA77A20EE060A77EEE67A2C
:10376000C0EE276A36EE877A38EE478ABDEEC88A01
:1037700086ED008A4EE7D7ED007A4148B8EEE78A39
:10378000FDF7C6FDD8ED197AD8ED0C6A9FED3E6ABB
:1037900098ED0E7AF8EEE77A30EE660A36EE676A52
:1037A00077EE666A20EE060A80EE267A77EE277AB2
:1037B00038EE678ABDEEC88A87ED008A3BE7FDF7E1
:1037C000D7FCD4ED097A94ED087A77EEC77AB4EE97
:1037D000E70AF1EE10FA7FF768AFD5ED007A2848D6
:1037E000B8EEE78AFDF7C4FCD7ED096A97ED086AE1
:1037F00097ED1A7AD7ED197A36EEC66AB8EEC77A1F
:10380000F8EEE77A30EE460A77EEC77A76EEC66AC9
:1038100067EE807A87EEA66A36EE077A38EE478A38
:10382000BDEEC88A85ED008A3FE7D8ED007A1448DE
:10383000B8EEE78AFDF768FDD7ED0F6AD7ED1B7A82
:1038400097ED0B7A9FED106AF8EEE77A30EE660A94
:1038500037EE667A27EE800AC0EE077A77EE867A30
:1038600038EE678ABDEEC88A88ED008A4DE700BF52
:10387000F85CFF1F045DFF1F9015FF1F585EFF1FC0
:103880001017FF1FA015FF1F0000000008B52748F4
:1038900009F050FD0721264809F07CFA112007F0B5
:1038A0002DFE0621F8B1234809F074FA102007F024
:1038B00025FE062100B3204809F06CFA122007F01B
:1038C0001DFE062108B31D4809F064FA132007F015
:1038D00015FE062110BB1A4809F05CFA1348BDE832
:1038E000084009F027BD174809F054FA102007F0E6
:1038F00005FE06210028DED1134809F04BFA1220FC
:1039000007F0FCFD06210028DDD1104809F042FA3D
:10391000132007F0F3FD06210028DCD00C4809F045
:1039200039FA0248BDE8084009F004BDD00AFF1F7B
:10393000543701005C3701006C3701007C3701000F
:1039400094370100643701007437010084370100A7
:103950008C37010010B5254C2368042B27DC01218E
:103960000B2007F0C5FD01210C2007F0C1FD01214E
:10397000142007F0BDFD0121152007F0B9FDFF213E
:10398000162007F06FFBFF21172007F06BFBFF21CC
:10399000052007F067FBFF21062007F063FB236883
:1039A00001330A2B2360C4BF0023236010BD002114
:1039B0000B2007F09DFD00210C2007F099FD002150
:1039C000142007F095FD0021152007F091FD00213E
:1039D000162007F047FB0021172007F043FB0021CA
:1039E000052007F03FFB0021D6E700BF445EFF1F24
:1039F00010B509212DED028BB64808F0EDF8222014
:103A000008F092F8B44BD3F8AC30012BB34B1B78D1
:103A100009D0052B10D8DFE813F03E0143014D011A
:103A2000520148010B00002B00F04E81052B03D101
:103A30000721AB4808F0D0F8222008F075F8FF20E5
:103A400008F072F8FF2008F06FF8A64C9FEDA68AE8
:103A5000FF2008F069F80821A44808F0BDF82168A3
:103A6000A34809F0B7FCFF2008F05EF8FF2008F03B
:103A70005BF8FF2008F058F809219E4808F0ACF8E0
:103A800021689B4809F0A6FCFF2008F04DF8FF20B4
:103A900008F04AF8FF2008F047F80C21964808F093
:103AA0009BF8964BDFED967A93ED007AC7EE276A86
:103AB00016EE900A0AF0C4FD41EC100B00218C4870
:103AC00009F092FCFF2008F02FF8FF2008F02CF8F6
:103AD000FF2008F029F809218A4808F07DF88A4873
:103AE000FDF7A2FB10EE100A0AF0AAFD41EC100B44
:103AF00000217F4809F078FCFF2008F015F8FF202E
:103B000008F012F8FF2008F00FF80C217F4808F0A9
:103B100063F87D48FDF7FCFB10EE100A0AF090FDFB
:103B200041EC100B0021724809F05EFCFF2007F009
:103B3000FBFFFF2007F0F8FFFF2007F0F5FF0D2146
:103B4000734808F049F87048FDF7DEFB10EE100AE4
:103B50000AF076FD41EC100B0021654809F044FCA9
:103B6000FF2007F0E1FFFF2007F0DEFFFF2007F056
:103B7000DBFF0921674808F02FF86348FDF722FBB7
:103B8000F2EE047A60EE277A17EE900A0AF058FDFA
:103B900041EC100B0021564809F026FCFF2007F0ED
:103BA000C3FFFF2007F0C0FFFF2007F0BDFF0C217F
:103BB000594808F011F85448FDF7AEFA60EE087A5B
:103BC00017EE900A0AF03CFD41EC100B002148482A
:103BD00009F00AFCFF2007F0A7FFFF2007F0A4FF71
:103BE000FF2007F0A1FF0D214C4807F0F5FF4648E4
:103BF000FDF7BEFA60EE087A17EE900A0AF020FD93
:103C000041EC100B00213A4809F0EEFBFF2007F0D1
:103C10008BFFFF2007F088FFFF2007F085FF0921B9
:103C20003F4807F0D9FF3F4B3148196809F0D2FBF4
:103C3000FF2007F079FFFF2007F076FFFF2007F055
:103C400073FF0E21384807F0C7FF2F48FDF790FAA1
:103C50002D48F0EE408AFDF75FFA38EEC00A60EEBC
:103C6000087A17EE900A0AF0EBFC41EC100B0021E9
:103C70001F4809F0B9FBFF2007F056FFFF2007F0AF
:103C800053FFFF2007F050FFBDEC028BFF20BDE883
:103C9000104007F049BF0621244807F09DFFCBE6FE
:103CA0000721234807F098FFC6E60B21214807F0BB
:103CB00093FFC1E60721204807F08EFFBCE60821EC
:103CC0001E4807F089FFB7E608211D4807F084FF6A
:103CD000B2E600BF9C370100045DFF1FF85CFF1FC8
:103CE000EC3401001808FF1F00007A44B4370100CB
:103CF000A40AFF1FC0370100CC370100EC5CFF1F96
:103D00000000C842DC3701001017FF1FE837010030
:103D1000F837010008380100143801002438010088
:103D2000343801002C08FF1F40380100BC3401006A
:103D3000C4340100CC340100D8340100E034010067
:103D4000A83701002DE9F041D34DD5F8BC40042C33
:103D500082B000F0BB81032C00F0E680012C00F063
:103D60001981022C00F0A180062C04D0082C47D029
:103D700002B0BDE8F081D5ED167AD5ED066A9FED6B
:103D8000C77AC74EF8EEE77A502067EEA67A082188
:103D9000F4EEC77A0022DC23F1EE10FA3060F17104
:103DA000327273726EDC01229023B272F372BD4BD9
:103DB000DFEDBD6A93ED007AB94AB8EEC77A002309
:103DC00067EE277A3373F4EEE67AF1EE10FA68D5EF
:103DD000DFEDB66A87EEA67AFCEEC77A17EE903A68
:103DE000C3F30723537393730123D5F8D820AC4949
:103DF000AF48F373FCF75EFCD5F8BC40082CB7D194
:103E0000A74ED5F8D820AA48F47140F28527B623EA
:103E1000314637600027B37237727772F7723773A3
:103E20007773B773FCF746FCD5ED167A95ED066A05
:103E3000A0499C4BD5F8D8201B680D6893FBF5F57D
:103E4000B8EEE77AF2EE046A67EE067A9848F47103
:103E500067EEA67A40F2862EFCEEE77A3146CDED8B
:103E6000017ABDF80430F7721C1237737773B77399
:103E7000C6F800E073723472B57202B0BDE8F0416A
:103E8000FCF718BCB2EE047A27EE877ABCEEC77A4C
:103E90008DED017ABDF80430F37243FA01F2B2728B
:103EA00085E79621537391739EE77D4ED5F8D82010
:103EB0003472012331467E48F37140F20E3434608F
:103EC000FCF7F8FBD5ED167A764BD5ED066A1B6844
:103ED0009FED727AF8EEE77A5B0067EEA67AFF2B29
:103EE000F4EEC77AC8BFFF234FF44170042140228B
:103EF000F1EE10FA3060F1713272737240F3238187
:103F000077EEA77AFCEEE77ACDED017ABDF80430C2
:103F1000F3721A12B272D5F8D82061496448FCF7DE
:103F2000C9FBD5F8BC401FE795ED167AD5ED067AAA
:103F300060495C4A5A4B12680E6892FBF6F6B8EE7E
:103F4000C77AF2EE046A67EE277A40F2FF2167EE45
:103F5000A67A9C72FCEEE77A0120CDED017ABDF8DD
:103F60000420DA7214124FF0070E1C731960341219
:103F70001872E8271946D5F8D8204D489C7383F865
:103F800007E05F725E73FCF795FBD5F8BC40012C2F
:103F90007FF4E7AE484B424E1B6833600722802314
:103FA0001020F271337207F0A9FA002840F0D28095
:103FB000424B1B6895ED167A95ED066ADFF8E480B2
:103FC0003C4F374C3A4803EB83035B001A12B37241
:103FD0003B4B7272D3ED007A3A68D8F8003093FB0D
:103FE000F2F3B8EEC77AF2EE046AD6EE077A1A1246
:103FF000B373214667EEA67A7273FCEEE77AD5F8C2
:10400000D820CDED017ABDF8043033731B12F37262
:10401000FCF750FB022007F0A9FA2A4B1B6833601B
:10402000072280231020F271337207F067FA00280C
:1040300040F08E80214B1B6895ED167A95ED066A4F
:1040400039681B4803EB83035B001A12A3721E4BF3
:104050006272D3ED007AD8F8003093FBF1F3B8EE3A
:10406000C77AF2EE046AD6EE077A1C12B373747341
:1040700067EEA67AD5F8D8200949FCEEE77ACDEDAF
:10408000017ABDF8043033731C12F472FCF712FB92
:10409000D5F8BC4065E600BF045DFF1F0000484343
:1040A0007C15FF1F9015FF1F00404E450000704318
:1040B000245EFF1F1408FF1F5408FF1F1008FF1F76
:1040C0008C15FF1F5808FF1F5C5CFF1F95ED167ACB
:1040D000D5ED067A204B214A214E12681B6893FBCE
:1040E000F2F3B8EEC77AF2EE046A67EE277A1D4A59
:1040F000B079326067EEA67A4FF0080EFCEEE77AF0
:1041000040F00100CDED017ABDF80420727242FA50
:104110000EF1002743FA0EF43172B0713146D5F832
:10412000D8201148F372B47286F807E037737773BA
:10413000B773F773FCF7BEFAB379D5F8BC4067F3F1
:104140000003B37107E601229023B272F372E2E634
:10415000064B70E7054B2CE79015FF1F1408FF1F57
:104160007C15FF1FF4E50618245EFF1F2408FF1FBF
:1041700070B50368C57984B0012D8DF805304FEA1C
:1041800013230E468DF8043005F1010201A909DD63
:1041900007300D440DF1050310F8014F03F8014FEE
:1041A000AB42F9D1034B04489B5D03F017FD04B00B
:1041B00070BD00BFD43301001016FF1FF8B5114CBD
:1041C0001148B02308222360E27100230122FF2757
:1041D000CD26A2252146637223736373A373E37311
:1041E0002772A672E572FCF765FA084BD3F8E02057
:1041F000012A05D021460448BDE8F840FCF75ABA28
:10420000F8BD00BF7C15FF1F245EFF1F045DFF1F6C
:104210002DE9F0436E4E2DED028B3378062B85B0E1
:1042200000F085806B4B6C4F1B78DFF8D8916B4D9D
:10423000002B53D033786A4CDFF8CC8143F08003F5
:10424000082223600023E271C8F80030C72210233F
:104250002272637299F8003061490022022BA27227
:10426000E2720BD83B784A734FEA03134FF02002F7
:10427000DBB20A730ED104338B730CE0D8F8003034
:10428000012B0CBF482340230B733B7801221B01F9
:10429000DBB26273A37331785148FFF769FFE073B3
:1042A000022007F063F901224D494E48FCF702FA5B
:1042B000D5F8E020012A03D049494A48FCF7FAF929
:1042C0003378494801333370FCF786FD08B1FFF7B6
:1042D00075FF05B0BDEC028BBDE8F083DFF82881E7
:1042E0003378D8F8001043F080033D4C08220129B0
:1042F0002360E271AAD13C489FED3C8AFCF70CFF99
:1043000020EE080A3848BCEEC00A10EE103A053319
:104310002372FCF701FF20EE080AFCEEC07ACDED17
:10432000017ABDF8043005331B12637292E72A4FFD
:10433000DFF8D0903B7899F800200133032ADBB2F4
:1043400098BF01324FF0000198BF89F800200F2B71
:104350003B70317003D01F4B204D1B7868E7244A17
:10436000244C1368029302992068002388423B7012
:1043700013D2214B174D1968012399422B7015D088
:10438000164D12680392B5F8A810039A3C314FF409
:104390007A7000FB012222604AE70E4ADFF868804B
:1043A0001370D8F800100D4D80239EE7134801923A
:1043B00008F0C0FF1321124808F0ECFC0F4808F089
:1043C000B9FF0E4808F0B6FF2B78019AD8E700BF76
:1043D000685EFF1F505EFF1F485EFF1F045DFF1FEA
:1043E0007C15FF1F245EFF1F1017FF1F00007A447B
:1043F000045FFF1F305EFF1F4008FF1FD00AFF1F32
:1044000050380100745EFF1F2C5EFF1F2DE9F8433A
:10441000244CDFF89C8000254FF0A009FF230122E7
:104420002049214865720827A126C4F80090E77149
:104430002672A372E37223736373A373E373FCF7AF
:1044400039F9D8F8E02017491748012A05F1010584
:1044500001D0FCF72FF9022007F088F80F2DDDD1ED
:10446000124B104910480025A0221D702260FF2326
:10447000012208263725E67125726372A372E37262
:1044800023736373A373E373FCF714F9D8F8E02084
:10449000012A05D003490448BDE8F843FCF70AB9EE
:1044A000BDE8F8837C15FF1F245EFF1F6C15FF1FFE
:1044B000045DFF1F2DE9F041B74CB84D2DED028B87
:1044C00008F002FC23682860042B00F06783022BAD
:1044D00000F08881082B4BD0072B40F0C380332895
:1044E00001F0EE8700F3FA83312801F0D0873228FB
:1044F00040F01E8208F024FC002840F3B180A84858
:10450000A84E09F0AFF807EE900A9FEDA77AF8EEF3
:10451000E77A012367EE877A6120C6ED117A23607E
:104520002860A0F152031F2B00F20282DFE813F093
:10453000930F0002000200020002000200020002CB
:104540000002000200020002000200020002300429
:10455000C310CC051E062A05000200020002A804B2
:104560000002C01000020002000200020002980FC8
:10457000322800F0C68340F3EE83342800F0E28353
:10458000712840F0D5810022732322602B602368BC
:10459000002B40F0D081854E814808F0CBFE0421ED
:1045A000834808F0F7FB7E4808F0C4FE10218148DC
:1045B00008F0F0FB7A4808F0BDFE13217E4808F0B1
:1045C000E9FB7E4B7648196808F004FF744808F050
:1045D000B1FE14217A4808F0DDFB714808F0AAFE0C
:1045E0001E21784808F0D6FB6D4808F0A3FE15217F
:1045F000754808F0CFFB6A4808F09CFE1E217348FE
:1046000008F0C8FB664808F095FE2021704808F0C5
:10461000C1FB634808F08EFE19216E4808F0BAFB12
:104620005F4808F087FE12216B4808F0B3FB5C4836
:1046300008F080FE0F21694808F0ACFB584808F0EC
:1046400079FE0D21664808F0A5FB554808F072FE7A
:10465000BDEC028B0022012332602360BDE8F081B3
:1046600023682868062B40F06C81A0F13003462BAC
:1046700000F25E8101A252F823F000BF87560000CD
:104680005357000085570000B1560000D756000070
:10469000FD5600001157000073560000314900001C
:1046A0003149000031490000314900003149000022
:1046B0003149000031490000314900003149000012
:1046C0003149000031490000314900003149000002
:1046D00031490000314900003149000031490000F2
:1046E00031490000314900003149000031490000E2
:1046F00031490000314900003149000031490000D2
:1047000031490000314900003149000031490000C1
:1047100031490000314900003149000031490000B1
:1047200031490000314900003149000031490000A1
:104730003149000031490000314900003149000091
:104740003149000031490000435600003149000062
:104750003149000031490000314900003149000071
:104760003149000031490000314900003149000061
:104770003149000031490000314900003149000051
:1047800087450000314900003149000031490000EF
:104790003149000035570000785EFF1F345CFF1F71
:1047A000D00AFF1F045DFF1F6F12833A4008FF1FEE
:1047B000DC3C0100E43C0100F83C01002C08FF1F38
:1047C0000C3D0100243D0100443D01005C3D010021
:1047D0007C3D0100A03D0100BC3D0100D03D010039
:1047E000E03D0100A0F13103422B00F2A18001A2C3
:1047F00052F823F01D56000075550000BF5500000B
:10480000D9550000FB5500009155000031490000CA
:1048100031490000314900003149000031490000B0
:1048200031490000314900003149000031490000A0
:104830003149000031490000314900003149000090
:104840003149000031490000314900003149000080
:104850003149000031490000314900003149000070
:104860003149000031490000314900003149000060
:104870003149000031490000314900003149000050
:104880003149000031490000314900003149000040
:104890003149000031490000314900003149000030
:1048A0003149000031490000314900003149000020
:1048B000314900003149000031490000B355000082
:1048C0003149000031490000314900003149000000
:1048D00031490000314900003149000031490000F0
:1048E00031490000314900003149000031490000E0
:1048F000314900008745000031490000575500004C
:1049000008F01EFA002841F3BB85F148F14E08F08B
:10491000A9FE0127034601466222EF48F36527609E
:104920002A60FCF755FC23682868012B3FF4F9AD99
:1049300073283FF42CAEBDEC028BBDE8F0812368F8
:104940002868052B40F08C80A0F13103402BEFD874
:1049500001A252F823F000BFEF53000009550000F8
:1049600039540000595400000F5400000153000056
:10497000314900003149000031490000314900004F
:10498000314900003149000031490000314900003F
:10499000314900003149000031490000314900002F
:1049A000314900003149000031490000314900001F
:1049B000314900003149000031490000314900000F
:1049C00031490000314900003149000031490000FF
:1049D00031490000314900003149000031490000EF
:1049E00031490000314900003149000031490000DF
:1049F00031490000314900003149000031490000CF
:104A000031490000314900003149000031490000BE
:104A100031490000314900003149000031490000AE
:104A2000314900003149000031490000314900009E
:104A3000314900003149000031490000314900008E
:104A4000314900003149000031490000314900007E
:104A500031490000314900002955000023682868C9
:104A6000032B7FF462AFA0F13003482B3FF660AF19
:104A700001A252F823F000BF014900006F5E000060
:104A8000516100009F5E0000C75E0000EF5E000005
:104A90001F5F00004F5F00006D5F0000915F00002E
:104AA000314900003149000031490000314900001E
:104AB000314900003149000031490000314900000E
:104AC00031490000314900003149000031490000FE
:104AD00031490000314900003149000031490000EE
:104AE00031490000314900003149000031490000DE
:104AF00031490000314900003149000031490000CE
:104B000031490000314900003149000031490000BD
:104B100031490000314900003149000031490000AD
:104B2000314900003149000031490000314900009D
:104B3000314900003149000031490000C15F0000E7
:104B4000DF5F0000FD5F00001B600000F3600000FD
:104B500011610000DF5800000B59000031490000CE
:104B600037590000C360000039600000314900007F
:104B700031490000314900003149000087450000FB
:104B800095600000314900003149000031490000C2
:104B900031490000314900004F5E0000A0F13103AF
:104BA000482B3FF6C5AE01A252F823F0B7570000DC
:104BB000CF570000D3570000FF57000003580000F4
:104BC0005158000063580000675800006B580000FF
:104BD00031490000314900003149000031490000ED
:104BE00031490000314900003149000031490000DD
:104BF00031490000314900003149000031490000CD
:104C000031490000314900003149000031490000BC
:104C100031490000314900003149000031490000AC
:104C2000314900003149000031490000314900009C
:104C3000314900003149000031490000314900008C
:104C4000314900003149000031490000314900007C
:104C5000314900003149000031490000314900006C
:104C6000314900003149000031490000314900005C
:104C70008D580000314900003149000031490000E1
:104C8000314900003149000031490000314900003C
:104C9000314900003149000031490000314900002C
:104CA00031490000314900003149000087450000CA
:104CB000A758000031490000314900003149000087
:104CC0003149000031490000B7580000C7580000C2
:104CD000D00AFF1F045DFF1F1017FF1F34287FF449
:104CE0004FAC08F02DF800287FF7BAAC9248934EED
:104CF00008F0B8FC61230122B08622602B601846C0
:104D00000FE408F01DF8002821DD8B488B4E08F0D9
:104D1000A9FC07EE900A9FED8A7AB6F9D02096F8A2
:104D200048108848F8EEE77A67EE877AB0EE670AAF
:104D3000C6ED137AFCF74EFA012369202360286040
:104D4000FFF7EFBB07F0FCFF002800F3F5832368B3
:104D50002868FFF7C1BB31287FF4EAAD07F0F0FF08
:104D6000002840F369847448744E08F07BFCC0B29C
:104D700086F8480002288ABF0021014686F84810BC
:104D8000B6F9D02096ED130A6E48D3E707F09CFFE2
:104D900007F0D6FF05460028F8D16748674E9FED1B
:104DA0006A8A08F0C7FA644808F0C4FA624808F052
:104DB000C1FA614808F0BEFA5F4808F0BBFA1F214B
:104DC000624807F0E7FF5C4808F0B4FA1C2160482D
:104DD00007F0E0FFD6ED0A7A67EE887A17EE900AC0
:104DE00009F02EFC41EC100B2946534808F0FCFA60
:104DF0000221584807F0CEFF4F4808F09BFA2321C4
:104E0000554807F0C7FFD6ED117A67EE887A17EE9E
:104E1000900A09F015FC41EC100B2946464808F0B1
:104E2000E3FA02214B4807F0B5FF434808F082FA45
:104E300019214A4807F0AEFF306C09F001FC41EC43
:104E4000100B02213C4808F0CFFA0221444807F039
:104E5000A1FF394808F06EFA2221424807F09AFF74
:104E6000B18E354808F0B6FA03213F4807F092FFAB
:104E7000314808F05FFA072323605CE507F024FF60
:104E800007F05EFF05460028F8D12B482B4E08F0AE
:104E900051FA294808F04EFA274808F04BFA2648FC
:104EA00008F048FA244808F045FA15212F4807F081
:104EB00071FF214808F03EFA18212D4807F06AFFDB
:104EC0002B460A2296F848101B4808F043FA1A4865
:104ED00008F030FA2821274807F05CFF96ED137A96
:104EE000DFED197A67EE277A17EE900A09F0A8FB32
:104EF00041EC100B2946104808F076FA02211548BB
:104F000007F048FF0C4808F015FA18211A4807F076
:104F100041FFB6F9D010084808F05CFA064808F0DE
:104F200009FA1321154807F035FF034808F002FA83
:104F300008232360FFE400BFD00AFF1F045DFF1FAA
:104F40006F12833A1017FF1F00007A44283B0100BC
:104F5000483B0100D0380100683B01008C3B010058
:104F6000B83A0100A83B0100CC3B0100A43D010080
:104F700088380100A4380100D4380100F03801005D
:104F800007F0A2FE07F0DCFE05460028F8D16748CE
:104F9000674E9FED688A08F0CDF9644808F0CAF9B9
:104FA000624808F0C7F9614808F0C4F95F4808F0A2
:104FB000C1F91121604807F0EDFE5C4808F0BAF92C
:104FC00028215E4807F0E6FED6ED067A67EE887A7D
:104FD00017EE900A09F034FB41EC100B29465348B8
:104FE00008F002FA0221564807F0D4FE4F4808F0B4
:104FF000A1F91621534807F0CDFED6ED087A67EEE9
:10500000887A17EE900A09F01BFB41EC100B294639
:10501000464808F0E9F90221494807F0BBFE434839
:1050200008F088F9D6F8BC30002B37DD1D21464842
:105030009FED468A07F0AEFED6ED197AF8EEE77AD4
:1050400067EE887A17EE900A09F0FAFA41EC100B35
:105050000221364808F0C8F901213D4807F09AFEC0
:10506000324808F067F91F213A4807F093FED6ED61
:105070001A7AF8EEE77A67EE887A17EE900A09F066
:10508000DFFA41EC100B0221284808F0ADF90121AC
:105090002F4807F07FFE254808F04CF911212E48D3
:1050A00007F078FED6F8BC30082B01F2E180DFE88B
:1050B00013F0C809CD09C309BE09B909B409AF097C
:1050C000AA09DB0807F000FE07F03AFE0028F9D134
:1050D0001648174E08F02EF9144808F02BF913481B
:1050E00008F028F9114808F025F9104808F022F9CD
:1050F0001F211A4807F04EFE0C4808F01BF91E212C
:10510000174807F047FE094808F014F91A21154816
:1051100007F040FED6F88430013B032B01F26E828B
:10512000DFE813F09A0892088A084808D00AFF1F9F
:10513000045DFF1F00007A44483D0100043901006E
:10514000D03801003039010048390100CDCCCC3DC8
:10515000A44001006839010088390100483F01007E
:10516000683F0100883F010007F0AEFD07F0E8FD51
:1051700005460028F8D1BF48BF4E08F0DBF8BD480F
:1051800008F0D8F8BB4808F0D5F8BA4808F0D2F8CB
:10519000B84808F0CFF81321B84807F0FBFDB54830
:1051A00008F0C8F80D21B64807F0F4FDB14808F042
:1051B000C1F80F21B34807F0EDFDB34BAD481968B6
:1051C00008F008F9AB4808F0B5F81321AF4807F02C
:1051D000E1FDAF4BA748196808F0FCF8A54808F0B6
:1051E000A9F81221AB4807F0D5FDAB4BA1481968CF
:1051F00008F0F0F89F4808F09DF81121A74807F043
:10520000C9FDA74B9B48196808F0E4F8994808F0D5
:1052100091F80E21A34807F0BDFDD6F8AC109548D3
:1052200008F0D8F8934808F085F819219E4807F04F
:10523000B1FD9E4B8F48196808F0CCF88D4808F0F6
:1052400079F811219A4807F0A5FD9A4B8948196809
:1052500008F0C0F8874808F06DF81021964807F06C
:1052600099FD964B8348196808F0B4F8814808F016
:1052700061F81C21924807F08DFD924B7D4819681A
:1052800008F0A8F87B4808F055F816218E4807F07A
:1052900081FDB6F8A810774808F09CF81E218B48CD
:1052A00007F078FD734808F045F80C21884807F0AE
:1052B00071FD884B6F4819780A222B4608F04AF88E
:1052C0006C4808F037F81021834807F063FD294641
:1052D000824807F05FFD674808F02CF817218048E6
:1052E00007F058FD634808F025F813217D4807F0C2
:1052F00051FD604808F01EF804232360FFF71BBB34
:105300005D4E96F8CD30B3FA83F35B0901216B2231
:1053100086F8CD3021602A6001E007F0D5FC07F067
:105320000FFD0028F9D15348534D08F003F85148B8
:1053300008F000F84F4807F0FDFF4E4807F0FAFF6D
:105340004C4807F0F7FF2121674807F023FD494843
:1053500007F0F0FF1521654807F01CFDD6F88C100A
:10536000444808F037F80221614807F013FD41482E
:1053700007F0E0FF1E215F4807F00CFDD6F89410FF
:105380003C4808F027F803215B4807F003FD394843
:1053900007F0D0FF1E21594807F0FCFCD6F890100A
:1053A000344808F017F8334807F0C4FF1D2154486B
:1053B00007F0F0FCD6F8B0102E4808F00BF82D4896
:1053C00007F0B8FF1E214F4807F0E4FCD6F8B410F0
:1053D000284807F0FFFF274807F0ACFFD6F8AC30AD
:1053E000012B01F0438105232360FFF7A4BA07F0E6
:1053F000A7FC00287FF732AB1E481F4E08F032F999
:1054000001226B23C6F88C0022602B6087E707F02F
:1054100097FC00287FF722AB1648174E08F022F9B8
:10542000244BC6F8B40003221A60FCF7A7FB012244
:105430006B2322602B6072E707F082FC00287FF765
:105440000DAB0C480C4E08F00DF901226B23C6F889
:10545000900022602B6062E707F072FC00287FF763
:10546000FDAA0448044E08F0FDF8124BC6F8B0003F
:105470000222D9E7D00AFF1F045DFF1FF03D0100A3
:10548000043E0100143E01006C5EFF1F243E01003B
:10549000E05CFF1F383E0100385EFF1F4C3E0100FC
:1054A000FC5CFF1F603E0100703E01007015FF1F95
:1054B0008C3E01009415FF1FA03E01005815FF1FF0
:1054C000B43E01002808FF1FD43E0100EC3E01005D
:1054D0000C3F0100F05CFF1F1C3F01005C35010028
:1054E000303F0100F0380100D03B0100F43B0100E7
:1054F0004C3A01000C3C0100AC3501002C3C010091
:105500004C3C01006C3C010007F01AFC00287FF7BE
:10551000A5AAC348C34E08F0A5F801226B23C6F81C
:10552000940022602B60FAE6BF49002373220B60CF
:1055300023602A60FFF72BB8B948BA4E08F092F8FA
:1055400003B21A4696ED130A96F84810B748A6F823
:10555000D030FFF7EFBBB34AD2F884300133042BCD
:10556000C8BF0023C2F88430012363202360286071
:10557000FEF7D7BFAB4ED6F88830B3FA83F35B099A
:1055800001226320C6F8883022602860FEF7C9BF78
:105590000123236007F0D4FB002805DDA048A14EBD
:1055A00008F060F8A6F8C600632028602368FEF7BC
:1055B00093BFFDF769FB23682868FEF78BBF0123C3
:1055C000236007F0BDFB0028CEDD9548954E08F01E
:1055D00049F8C6F8B800C7E70123236007F0B0FB1D
:1055E0000028E1DD8E488F4E08F03CF807EE900A67
:1055F000F8EEE77AC6ED277AD6E70123236007F0B5
:105600009FFB0028D0DD8648864E08F02BF807EE79
:10561000900AF8EEE77AC6ED267AC5E7814ED6F80D
:105620008030B3FA83F35B0901226320C6F880302F
:1056300022602860FEF775BF7A4E96F84800FFF7A3
:1056400099BB07F07DFB00287FF779A9754BD3F84C
:10565000D8200132032AC8BF0022C3F8D8207449D9
:105660007448FAF7A1FF0123652023602860FEF744
:1056700058BF6C4B93F8CC20002A00F036870022EC
:1056800083F8CC20EFE707F05BFB00287FF757A9F2
:10569000634807F0E7FF634A00EB80004300516E68
:1056A0001BB28B42A2F8D230DDDDA2F8D210DAE7CD
:1056B00007F046FB00287FF742A95948594E07F0EA
:1056C000D1FF00EB80004300012265207366226059
:1056D0002860FEF726BF07F033FB00287FF72FA9CD
:1056E0004F48504E07F0BEFF00EB80004300012200
:1056F0006520B36622602860FEF713BF494AD2F8DE
:10570000BC300133062BC8BF0023C2F8BC30AAE767
:1057100007F016FB00287FF712A94148414E07F019
:10572000A1FF65230122C6F8C00022602B60184645
:10573000FEF7F7BE07F004FB00287FF700A9394BFE
:10574000D3F8DC200132032AC8BF0022C3F8DC20D2
:1057500085E707F0F5FA00287FF7F1A83048314EC9
:1057600007F080FF07EE900A9FED337AF8EEE76AC4
:105770000123C6EE877A652023602860C6ED067A8D
:10578000FEF7CFBE07F0DCFA00287FF7D8A8244840
:10579000244E07F067FF07EE900A9FED277AF8EE98
:1057A000E76A0123C6EE877A652023602860C6ED8C
:1057B000087AFEF7B6BE214A1368B3FA83F35B0991
:1057C00001216420136021602860FEF7AABE1C4AF4
:1057D000F2E71C4A1C4F1368002B0CBF012100216B
:1057E0004FF001031160236040F0108764222A60AB
:1057F000082B4FF064007EF46FAEFEF7B9BE134A7B
:10580000DAE7084ED6F8AC30B3FA83F35B0901222D
:105810006420C6F8AC3022602860FEF782BE00BF6C
:10582000D00AFF1F045DFF1F9415FF1F1017FF1FF5
:1058300020A10700245EFF1F00007A446C5EFF1F5A
:10584000E05CFF1F385EFF1F785EFF1FFC5CFF1FE0
:10585000012343482360FBF7DBFA424A23681060C8
:10586000C4E7414AA8E7414AA6E70123236007F0BD
:1058700067FA002800F3B3863D4B1A68042A01DD5D
:1058800002221A6064232B602368B1E7012323609E
:1058900007F056FA0028F5DD3648374E07F0E2FEED
:1058A000A6F8A800EEE701232360FEF787FC642337
:1058B0002B6023689CE701232360FEF7A7FD642388
:1058C0002B60236894E70123236007F039FA00284E
:1058D000D8DD284807F0C6FE284B1870D2E707F03D
:1058E0002FFA002811DD2348234E07F0BBFE07EEF8
:1058F000900A9FED237AF8EEE76A0122C6EE877AD6
:10590000622322602B60C6ED097A07F019FA00289D
:1059100011DD1848184E07F0A5FE07EE900A9FED1E
:10592000187AF8EEE76A0122C6EE877A62232260CF
:105930002B60C6ED327A07F003FA002840F3A08509
:105940000C480D4E07F08EFE07EE900AF8EEE77A4F
:1059500001226223C6ED0F7A22602B6014E000BFA3
:105960001017FF1F7015FF1F9415FF1F5815FF1FFD
:105970002808FF1FD00AFF1F045DFF1FF05CFF1FF8
:1059800000007A4407F0A0F907F0DAF9054600288C
:10599000F8D1CD489FEDCD8ACD4F07F0CBFCCA485A
:1059A00007F0C8FCC84807F0C5FCC74807F0C2FCB0
:1059B000C54807F0BFFC1521C64807F0EBF9C248FF
:1059C00007F0B8FC1421C44807F0E4F9BE4807F01A
:1059D000B1FC1B21C14807F0DDF9BB4807F0AAFC68
:1059E0001321BF4807F0D6F9B74807F0A3FCB64823
:1059F00007F0A0FCB44807F09DFC2021B94807F04F
:105A0000C9F9D6ED037A67EE887A17EE900A08F0A6
:105A100017FE41EC100B2946AB4807F0E5FC0221CC
:105A2000B14807F0B7F90221B04807F0B3F9A6482A
:105A300007F080FC2121AE4807F0ACF9D6ED047ADE
:105A400067EE887A17EE900A08F0FAFD41EC100B29
:105A500029469D4807F0C8FC0221A34807F09AF99F
:105A60000221A24807F096F9974807F063FC1F212E
:105A7000A04807F08FF9F06A08F0E2FD41EC100B46
:105A80000221914807F0B0FC01219B4807F082F900
:105A90000221964807F07EF98B4807F04BFC202145
:105AA000964807F077F9306B08F0CAFD41EC100B0F
:105AB0000221854807F098FC01218F4807F06AF918
:105AC00002218A4807F066F97F4807F033FC23215A
:105AD0008B4807F05FF9D6ED147A67EE887A17EEF7
